{
  "_format": "hh-sol-artifact-1",
  "contractName": "HulkBadges",
  "sourceName": "contracts/HulkBadges.sol",
  "abi": [
    {
      "inputs": [],
      "stateMutability": "nonpayable",
      "type": "constructor"
    },
    {
      "inputs": [
        {
          "internalType": "address",
          "name": "sender",
          "type": "address"
        },
        {
          "internalType": "uint256",
          "name": "tokenId",
          "type": "uint256"
        },
        {
          "internalType": "address",
          "name": "owner",
          "type": "address"
        }
      ],
      "name": "ERC721IncorrectOwner",
      "type": "error"
    },
    {
      "inputs": [
        {
          "internalType": "address",
          "name": "operator",
          "type": "address"
        },
        {
          "internalType": "uint256",
          "name": "tokenId",
          "type": "uint256"
        }
      ],
      "name": "ERC721InsufficientApproval",
      "type": "error"
    },
    {
      "inputs": [
        {
          "internalType": "address",
          "name": "approver",
          "type": "address"
        }
      ],
      "name": "ERC721InvalidApprover",
      "type": "error"
    },
    {
      "inputs": [
        {
          "internalType": "address",
          "name": "operator",
          "type": "address"
        }
      ],
      "name": "ERC721InvalidOperator",
      "type": "error"
    },
    {
      "inputs": [
        {
          "internalType": "address",
          "name": "owner",
          "type": "address"
        }
      ],
      "name": "ERC721InvalidOwner",
      "type": "error"
    },
    {
      "inputs": [
        {
          "internalType": "address",
          "name": "receiver",
          "type": "address"
        }
      ],
      "name": "ERC721InvalidReceiver",
      "type": "error"
    },
    {
      "inputs": [
        {
          "internalType": "address",
          "name": "sender",
          "type": "address"
        }
      ],
      "name": "ERC721InvalidSender",
      "type": "error"
    },
    {
      "inputs": [
        {
          "internalType": "uint256",
          "name": "tokenId",
          "type": "uint256"
        }
      ],
      "name": "ERC721NonexistentToken",
      "type": "error"
    },
    {
      "inputs": [
        {
          "internalType": "address",
          "name": "owner",
          "type": "address"
        }
      ],
      "name": "OwnableInvalidOwner",
      "type": "error"
    },
    {
      "inputs": [
        {
          "internalType": "address",
          "name": "account",
          "type": "address"
        }
      ],
      "name": "OwnableUnauthorizedAccount",
      "type": "error"
    },
    {
      "anonymous": false,
      "inputs": [
        {
          "indexed": true,
          "internalType": "address",
          "name": "owner",
          "type": "address"
        },
        {
          "indexed": true,
          "internalType": "address",
          "name": "approved",
          "type": "address"
        },
        {
          "indexed": true,
          "internalType": "uint256",
          "name": "tokenId",
          "type": "uint256"
        }
      ],
      "name": "Approval",
      "type": "event"
    },
    {
      "anonymous": false,
      "inputs": [
        {
          "indexed": true,
          "internalType": "address",
          "name": "owner",
          "type": "address"
        },
        {
          "indexed": true,
          "internalType": "address",
          "name": "operator",
          "type": "address"
        },
        {
          "indexed": false,
          "internalType": "bool",
          "name": "approved",
          "type": "bool"
        }
      ],
      "name": "ApprovalForAll",
      "type": "event"
    },
    {
      "anonymous": false,
      "inputs": [
        {
          "indexed": false,
          "internalType": "uint256",
          "name": "_fromTokenId",
          "type": "uint256"
        },
        {
          "indexed": false,
          "internalType": "uint256",
          "name": "_toTokenId",
          "type": "uint256"
        }
      ],
      "name": "BatchMetadataUpdate",
      "type": "event"
    },
    {
      "anonymous": false,
      "inputs": [
        {
          "indexed": false,
          "internalType": "uint256",
          "name": "_tokenId",
          "type": "uint256"
        }
      ],
      "name": "MetadataUpdate",
      "type": "event"
    },
    {
      "anonymous": false,
      "inputs": [
        {
          "indexed": true,
          "internalType": "address",
          "name": "previousOwner",
          "type": "address"
        },
        {
          "indexed": true,
          "internalType": "address",
          "name": "newOwner",
          "type": "address"
        }
      ],
      "name": "OwnershipTransferred",
      "type": "event"
    },
    {
      "anonymous": false,
      "inputs": [
        {
          "indexed": true,
          "internalType": "address",
          "name": "from",
          "type": "address"
        },
        {
          "indexed": true,
          "internalType": "address",
          "name": "to",
          "type": "address"
        },
        {
          "indexed": true,
          "internalType": "uint256",
          "name": "tokenId",
          "type": "uint256"
        }
      ],
      "name": "Transfer",
      "type": "event"
    },
    {
      "inputs": [
        {
          "internalType": "address",
          "name": "to",
          "type": "address"
        },
        {
          "internalType": "uint256",
          "name": "tokenId",
          "type": "uint256"
        }
      ],
      "name": "approve",
      "outputs": [],
      "stateMutability": "nonpayable",
      "type": "function"
    },
    {
      "inputs": [
        {
          "internalType": "uint256",
          "name": "",
          "type": "uint256"
        }
      ],
      "name": "badgeMetas",
      "outputs": [
        {
          "internalType": "string",
          "name": "name",
          "type": "string"
        },
        {
          "internalType": "string",
          "name": "description",
          "type": "string"
        },
        {
          "internalType": "string",
          "name": "image",
          "type": "string"
        }
      ],
      "stateMutability": "view",
      "type": "function"
    },
    {
      "inputs": [
        {
          "internalType": "address",
          "name": "owner",
          "type": "address"
        }
      ],
      "name": "balanceOf",
      "outputs": [
        {
          "internalType": "uint256",
          "name": "",
          "type": "uint256"
        }
      ],
      "stateMutability": "view",
      "type": "function"
    },
    {
      "inputs": [
        {
          "internalType": "uint256",
          "name": "tokenId",
          "type": "uint256"
        }
      ],
      "name": "getApproved",
      "outputs": [
        {
          "internalType": "address",
          "name": "",
          "type": "address"
        }
      ],
      "stateMutability": "view",
      "type": "function"
    },
    {
      "inputs": [
        {
          "internalType": "address",
          "name": "owner",
          "type": "address"
        },
        {
          "internalType": "address",
          "name": "operator",
          "type": "address"
        }
      ],
      "name": "isApprovedForAll",
      "outputs": [
        {
          "internalType": "bool",
          "name": "",
          "type": "bool"
        }
      ],
      "stateMutability": "view",
      "type": "function"
    },
    {
      "inputs": [
        {
          "internalType": "uint256",
          "name": "badgeId",
          "type": "uint256"
        }
      ],
      "name": "mintBadge",
      "outputs": [],
      "stateMutability": "nonpayable",
      "type": "function"
    },
    {
      "inputs": [
        {
          "internalType": "address",
          "name": "",
          "type": "address"
        },
        {
          "internalType": "uint256",
          "name": "",
          "type": "uint256"
        }
      ],
      "name": "mintedBadge",
      "outputs": [
        {
          "internalType": "bool",
          "name": "",
          "type": "bool"
        }
      ],
      "stateMutability": "view",
      "type": "function"
    },
    {
      "inputs": [],
      "name": "name",
      "outputs": [
        {
          "internalType": "string",
          "name": "",
          "type": "string"
        }
      ],
      "stateMutability": "view",
      "type": "function"
    },
    {
      "inputs": [],
      "name": "nextTokenId",
      "outputs": [
        {
          "internalType": "uint256",
          "name": "",
          "type": "uint256"
        }
      ],
      "stateMutability": "view",
      "type": "function"
    },
    {
      "inputs": [],
      "name": "owner",
      "outputs": [
        {
          "internalType": "address",
          "name": "",
          "type": "address"
        }
      ],
      "stateMutability": "view",
      "type": "function"
    },
    {
      "inputs": [
        {
          "internalType": "uint256",
          "name": "tokenId",
          "type": "uint256"
        }
      ],
      "name": "ownerOf",
      "outputs": [
        {
          "internalType": "address",
          "name": "",
          "type": "address"
        }
      ],
      "stateMutability": "view",
      "type": "function"
    },
    {
      "inputs": [],
      "name": "renounceOwnership",
      "outputs": [],
      "stateMutability": "nonpayable",
      "type": "function"
    },
    {
      "inputs": [
        {
          "internalType": "address",
          "name": "from",
          "type": "address"
        },
        {
          "internalType": "address",
          "name": "to",
          "type": "address"
        },
        {
          "internalType": "uint256",
          "name": "tokenId",
          "type": "uint256"
        }
      ],
      "name": "safeTransferFrom",
      "outputs": [],
      "stateMutability": "nonpayable",
      "type": "function"
    },
    {
      "inputs": [
        {
          "internalType": "address",
          "name": "from",
          "type": "address"
        },
        {
          "internalType": "address",
          "name": "to",
          "type": "address"
        },
        {
          "internalType": "uint256",
          "name": "tokenId",
          "type": "uint256"
        },
        {
          "internalType": "bytes",
          "name": "data",
          "type": "bytes"
        }
      ],
      "name": "safeTransferFrom",
      "outputs": [],
      "stateMutability": "nonpayable",
      "type": "function"
    },
    {
      "inputs": [
        {
          "internalType": "address",
          "name": "operator",
          "type": "address"
        },
        {
          "internalType": "bool",
          "name": "approved",
          "type": "bool"
        }
      ],
      "name": "setApprovalForAll",
      "outputs": [],
      "stateMutability": "nonpayable",
      "type": "function"
    },
    {
      "inputs": [
        {
          "internalType": "uint256",
          "name": "badgeId",
          "type": "uint256"
        },
        {
          "internalType": "string",
          "name": "name",
          "type": "string"
        },
        {
          "internalType": "string",
          "name": "description",
          "type": "string"
        },
        {
          "internalType": "string",
          "name": "image",
          "type": "string"
        }
      ],
      "name": "setBadgeMeta",
      "outputs": [],
      "stateMutability": "nonpayable",
      "type": "function"
    },
    {
      "inputs": [
        {
          "internalType": "bytes4",
          "name": "interfaceId",
          "type": "bytes4"
        }
      ],
      "name": "supportsInterface",
      "outputs": [
        {
          "internalType": "bool",
          "name": "",
          "type": "bool"
        }
      ],
      "stateMutability": "view",
      "type": "function"
    },
    {
      "inputs": [],
      "name": "symbol",
      "outputs": [
        {
          "internalType": "string",
          "name": "",
          "type": "string"
        }
      ],
      "stateMutability": "view",
      "type": "function"
    },
    {
      "inputs": [
        {
          "internalType": "uint256",
          "name": "tokenId",
          "type": "uint256"
        }
      ],
      "name": "tokenURI",
      "outputs": [
        {
          "internalType": "string",
          "name": "",
          "type": "string"
        }
      ],
      "stateMutability": "view",
      "type": "function"
    },
    {
      "inputs": [
        {
          "internalType": "address",
          "name": "from",
          "type": "address"
        },
        {
          "internalType": "address",
          "name": "to",
          "type": "address"
        },
        {
          "internalType": "uint256",
          "name": "tokenId",
          "type": "uint256"
        }
      ],
      "name": "transferFrom",
      "outputs": [],
      "stateMutability": "nonpayable",
      "type": "function"
    },
    {
      "inputs": [
        {
          "internalType": "address",
          "name": "newOwner",
          "type": "address"
        }
      ],
      "name": "transferOwnership",
      "outputs": [],
      "stateMutability": "nonpayable",
      "type": "function"
    }
  ],
  "bytecode": "0x608060405234801561001057600080fd5b50336040518060400160405280600981526020017f48756c6b426164676500000000000000000000000000000000000000000000008152506040518060400160405280600481526020017f484c4b4200000000000000000000000000000000000000000000000000000000815250816000908161008d919061043d565b50806001908161009d919061043d565b505050600073ffffffffffffffffffffffffffffffffffffffff168173ffffffffffffffffffffffffffffffffffffffff16036101125760006040517f1e4fbdf70000000000000000000000000000000000000000000000000000000081526004016101099190610550565b60405180910390fd5b6101218161012760201b60201c565b5061056b565b6000600760009054906101000a900473ffffffffffffffffffffffffffffffffffffffff16905081600760006101000a81548173ffffffffffffffffffffffffffffffffffffffff021916908373ffffffffffffffffffffffffffffffffffffffff1602179055508173ffffffffffffffffffffffffffffffffffffffff168173ffffffffffffffffffffffffffffffffffffffff167f8be0079c531659141344cd1fd0a4f28419497f9722a3daafe3b4186f6b6457e060405160405180910390a35050565b600081519050919050565b7f4e487b7100000000000000000000000000000000000000000000000000000000600052604160045260246000fd5b7f4e487b7100000000000000000000000000000000000000000000000000000000600052602260045260246000fd5b6000600282049050600182168061026e57607f821691505b60208210810361028157610280610227565b5b50919050565b60008190508160005260206000209050919050565b60006020601f8301049050919050565b600082821b905092915050565b6000600883026102e97fffffffffffffffffffffffffffffffffffffffffffffffffffffffffffffffff826102ac565b6102f386836102ac565b95508019841693508086168417925050509392505050565b6000819050919050565b6000819050919050565b600061033a6103356103308461030b565b610315565b61030b565b9050919050565b6000819050919050565b6103548361031f565b61036861036082610341565b8484546102b9565b825550505050565b600090565b61037d610370565b61038881848461034b565b505050565b5b818110156103ac576103a1600082610375565b60018101905061038e565b5050565b601f8211156103f1576103c281610287565b6103cb8461029c565b810160208510156103da578190505b6103ee6103e68561029c565b83018261038d565b50505b505050565b600082821c905092915050565b6000610414600019846008026103f6565b1980831691505092915050565b600061042d8383610403565b9150826002028217905092915050565b610446826101ed565b67ffffffffffffffff81111561045f5761045e6101f8565b5b6104698254610256565b6104748282856103b0565b600060209050601f8311600181146104a75760008415610495578287015190505b61049f8582610421565b865550610507565b601f1984166104b586610287565b60005b828110156104dd578489015182556001820191506020850194506020810190506104b8565b868310156104fa57848901516104f6601f891682610403565b8355505b6001600288020188555050505b505050505050565b600073ffffffffffffffffffffffffffffffffffffffff82169050919050565b600061053a8261050f565b9050919050565b61054a8161052f565b82525050565b60006020820190506105656000830184610541565b92915050565b613a888061057a6000396000f3fe608060405234801561001057600080fd5b50600436106101375760003560e01c8063715018a6116100b8578063b88d4fde1161007c578063b88d4fde1461033a578063c3c63edc14610356578063c87b56dd14610372578063e985e9c5146103a2578063f2fde38b146103d2578063fc8f2165146103ee57610137565b8063715018a6146102ba57806375794a3c146102c45780638da5cb5b146102e257806395d89b4114610300578063a22cb4651461031e57610137565b806323b872dd116100ff57806323b872dd14610206578063293291fe1461022257806342842e0e1461023e5780636352211e1461025a57806370a082311461028a57610137565b806301ffc9a71461013c57806306fdde031461016c578063081812fc1461018a578063095ea7b3146101ba57806314b1255c146101d6575b600080fd5b6101566004803603810190610151919061293c565b610420565b6040516101639190612984565b60405180910390f35b610174610481565b6040516101819190612a2f565b60405180910390f35b6101a4600480360381019061019f9190612a87565b610513565b6040516101b19190612af5565b60405180910390f35b6101d460048036038101906101cf9190612b3c565b61052f565b005b6101f060048036038101906101eb9190612b3c565b610545565b6040516101fd9190612984565b60405180910390f35b610220600480360381019061021b9190612b7c565b610574565b005b61023c60048036038101906102379190612d04565b610676565b005b61025860048036038101906102539190612b7c565b6106f7565b005b610274600480360381019061026f9190612a87565b610717565b6040516102819190612af5565b60405180910390f35b6102a4600480360381019061029f9190612dbf565b610729565b6040516102b19190612dfb565b60405180910390f35b6102c26107e3565b005b6102cc6107f7565b6040516102d99190612dfb565b60405180910390f35b6102ea6107fd565b6040516102f79190612af5565b60405180910390f35b610308610827565b6040516103159190612a2f565b60405180910390f35b61033860048036038101906103339190612e42565b6108b9565b005b610354600480360381019061034f9190612f23565b6108cf565b005b610370600480360381019061036b9190612a87565b6108f4565b005b61038c60048036038101906103879190612a87565b610cb1565b6040516103999190612a2f565b60405180910390f35b6103bc60048036038101906103b79190612fa6565b610dc4565b6040516103c99190612984565b60405180910390f35b6103ec60048036038101906103e79190612dbf565b610e58565b005b61040860048036038101906104039190612a87565b610ede565b60405161041793929190612fe6565b60405180910390f35b6000634906490660e01b7bffffffffffffffffffffffffffffffffffffffffffffffffffffffff1916827bffffffffffffffffffffffffffffffffffffffffffffffffffffffff1916148061047a5750610479826110a0565b5b9050919050565b60606000805461049090613061565b80601f01602080910402602001604051908101604052809291908181526020018280546104bc90613061565b80156105095780601f106104de57610100808354040283529160200191610509565b820191906000526020600020905b8154815290600101906020018083116104ec57829003601f168201915b5050505050905090565b600061051e82611182565b506105288261120a565b9050919050565b610541828261053c611247565b61124f565b5050565b60096020528160005260406000206020528060005260406000206000915091509054906101000a900460ff1681565b600073ffffffffffffffffffffffffffffffffffffffff168273ffffffffffffffffffffffffffffffffffffffff16036105e65760006040517f64a0ae920000000000000000000000000000000000000000000000000000000081526004016105dd9190612af5565b60405180910390fd5b60006105fa83836105f5611247565b611261565b90508373ffffffffffffffffffffffffffffffffffffffff168173ffffffffffffffffffffffffffffffffffffffff1614610670578382826040517f64283d7b00000000000000000000000000000000000000000000000000000000815260040161066793929190613092565b60405180910390fd5b50505050565b61067e61147b565b604051806060016040528084815260200183815260200182815250600a600086815260200190815260200160002060008201518160000190816106c19190613275565b5060208201518160010190816106d79190613275565b5060408201518160020190816106ed9190613275565b5090505050505050565b610712838383604051806020016040528060008152506108cf565b505050565b600061072282611182565b9050919050565b60008073ffffffffffffffffffffffffffffffffffffffff168273ffffffffffffffffffffffffffffffffffffffff160361079c5760006040517f89c62b640000000000000000000000000000000000000000000000000000000081526004016107939190612af5565b60405180910390fd5b600360008373ffffffffffffffffffffffffffffffffffffffff1673ffffffffffffffffffffffffffffffffffffffff168152602001908152602001600020549050919050565b6107eb61147b565b6107f56000611502565b565b60085481565b6000600760009054906101000a900473ffffffffffffffffffffffffffffffffffffffff16905090565b60606001805461083690613061565b80601f016020809104026020016040519081016040528092919081815260200182805461086290613061565b80156108af5780601f10610884576101008083540402835291602001916108af565b820191906000526020600020905b81548152906001019060200180831161089257829003601f168201915b5050505050905090565b6108cb6108c4611247565b83836115c8565b5050565b6108da848484610574565b6108ee6108e5611247565b85858585611737565b50505050565b600960003373ffffffffffffffffffffffffffffffffffffffff1673ffffffffffffffffffffffffffffffffffffffff168152602001908152602001600020600082815260200190815260200160002060009054906101000a900460ff1615610992576040517f08c379a000000000000000000000000000000000000000000000000000000000815260040161098990613393565b60405180910390fd5b6000600a60008381526020019081526020016000206040518060600160405290816000820180546109c290613061565b80601f01602080910402602001604051908101604052809291908181526020018280546109ee90613061565b8015610a3b5780601f10610a1057610100808354040283529160200191610a3b565b820191906000526020600020905b815481529060010190602001808311610a1e57829003601f168201915b50505050508152602001600182018054610a5490613061565b80601f0160208091040260200160405190810160405280929190818152602001828054610a8090613061565b8015610acd5780601f10610aa257610100808354040283529160200191610acd565b820191906000526020600020905b815481529060010190602001808311610ab057829003601f168201915b50505050508152602001600282018054610ae690613061565b80601f0160208091040260200160405190810160405280929190818152602001828054610b1290613061565b8015610b5f5780601f10610b3457610100808354040283529160200191610b5f565b820191906000526020600020905b815481529060010190602001808311610b4257829003601f168201915b5050505050815250509050600081600001515111610bb2576040517f08c379a0000000000000000000000000000000000000000000000000000000008152600401610ba9906133ff565b60405180910390fd5b600060086000815480929190610bc79061344e565b919050559050610bd733826118e8565b6000826000015183602001518460400151604051602001610bfa939291906136e6565b60405160208183030381529060405290506000610c1682611906565b604051602001610c2691906137bb565b6040516020818303038152906040529050610c418382611ead565b6001600960003373ffffffffffffffffffffffffffffffffffffffff1673ffffffffffffffffffffffffffffffffffffffff168152602001908152602001600020600087815260200190815260200160002060006101000a81548160ff0219169083151502179055505050505050565b6060610cbc82611182565b506000600660008481526020019081526020016000208054610cdd90613061565b80601f0160208091040260200160405190810160405280929190818152602001828054610d0990613061565b8015610d565780601f10610d2b57610100808354040283529160200191610d56565b820191906000526020600020905b815481529060010190602001808311610d3957829003601f168201915b505050505090506000610d67611f09565b90506000815103610d7c578192505050610dbf565b600082511115610db1578082604051602001610d999291906137dd565b60405160208183030381529060405292505050610dbf565b610dba84611f20565b925050505b919050565b6000600560008473ffffffffffffffffffffffffffffffffffffffff1673ffffffffffffffffffffffffffffffffffffffff16815260200190815260200160002060008373ffffffffffffffffffffffffffffffffffffffff1673ffffffffffffffffffffffffffffffffffffffff16815260200190815260200160002060009054906101000a900460ff16905092915050565b610e6061147b565b600073ffffffffffffffffffffffffffffffffffffffff168173ffffffffffffffffffffffffffffffffffffffff1603610ed25760006040517f1e4fbdf7000000000000000000000000000000000000000000000000000000008152600401610ec99190612af5565b60405180910390fd5b610edb81611502565b50565b600a602052806000526040600020600091509050806000018054610f0190613061565b80601f0160208091040260200160405190810160405280929190818152602001828054610f2d90613061565b8015610f7a5780601f10610f4f57610100808354040283529160200191610f7a565b820191906000526020600020905b815481529060010190602001808311610f5d57829003601f168201915b505050505090806001018054610f8f90613061565b80601f0160208091040260200160405190810160405280929190818152602001828054610fbb90613061565b80156110085780601f10610fdd57610100808354040283529160200191611008565b820191906000526020600020905b815481529060010190602001808311610feb57829003601f168201915b50505050509080600201805461101d90613061565b80601f016020809104026020016040519081016040528092919081815260200182805461104990613061565b80156110965780601f1061106b57610100808354040283529160200191611096565b820191906000526020600020905b81548152906001019060200180831161107957829003601f168201915b5050505050905083565b60007f80ac58cd000000000000000000000000000000000000000000000000000000007bffffffffffffffffffffffffffffffffffffffffffffffffffffffff1916827bffffffffffffffffffffffffffffffffffffffffffffffffffffffff1916148061116b57507f5b5e139f000000000000000000000000000000000000000000000000000000007bffffffffffffffffffffffffffffffffffffffffffffffffffffffff1916827bffffffffffffffffffffffffffffffffffffffffffffffffffffffff1916145b8061117b575061117a82611f89565b5b9050919050565b60008061118e83611ff3565b9050600073ffffffffffffffffffffffffffffffffffffffff168173ffffffffffffffffffffffffffffffffffffffff160361120157826040517f7e2732890000000000000000000000000000000000000000000000000000000081526004016111f89190612dfb565b60405180910390fd5b80915050919050565b60006004600083815260200190815260200160002060009054906101000a900473ffffffffffffffffffffffffffffffffffffffff169050919050565b600033905090565b61125c8383836001612030565b505050565b60008061126d84611ff3565b9050600073ffffffffffffffffffffffffffffffffffffffff168373ffffffffffffffffffffffffffffffffffffffff16146112af576112ae8184866121f5565b5b600073ffffffffffffffffffffffffffffffffffffffff168173ffffffffffffffffffffffffffffffffffffffff1614611340576112f1600085600080612030565b6001600360008373ffffffffffffffffffffffffffffffffffffffff1673ffffffffffffffffffffffffffffffffffffffff168152602001908152602001600020600082825403925050819055505b600073ffffffffffffffffffffffffffffffffffffffff168573ffffffffffffffffffffffffffffffffffffffff16146113c3576001600360008773ffffffffffffffffffffffffffffffffffffffff1673ffffffffffffffffffffffffffffffffffffffff168152602001908152602001600020600082825401925050819055505b846002600086815260200190815260200160002060006101000a81548173ffffffffffffffffffffffffffffffffffffffff021916908373ffffffffffffffffffffffffffffffffffffffff160217905550838573ffffffffffffffffffffffffffffffffffffffff168273ffffffffffffffffffffffffffffffffffffffff167fddf252ad1be2c89b69c2b068fc378daa952ba7f163c4a11628f55a4df523b3ef60405160405180910390a4809150509392505050565b611483611247565b73ffffffffffffffffffffffffffffffffffffffff166114a16107fd565b73ffffffffffffffffffffffffffffffffffffffff1614611500576114c4611247565b6040517f118cdaa70000000000000000000000000000000000000000000000000000000081526004016114f79190612af5565b60405180910390fd5b565b6000600760009054906101000a900473ffffffffffffffffffffffffffffffffffffffff16905081600760006101000a81548173ffffffffffffffffffffffffffffffffffffffff021916908373ffffffffffffffffffffffffffffffffffffffff1602179055508173ffffffffffffffffffffffffffffffffffffffff168173ffffffffffffffffffffffffffffffffffffffff167f8be0079c531659141344cd1fd0a4f28419497f9722a3daafe3b4186f6b6457e060405160405180910390a35050565b600073ffffffffffffffffffffffffffffffffffffffff168273ffffffffffffffffffffffffffffffffffffffff160361163957816040517f5b08ba180000000000000000000000000000000000000000000000000000000081526004016116309190612af5565b60405180910390fd5b80600560008573ffffffffffffffffffffffffffffffffffffffff1673ffffffffffffffffffffffffffffffffffffffff16815260200190815260200160002060008473ffffffffffffffffffffffffffffffffffffffff1673ffffffffffffffffffffffffffffffffffffffff16815260200190815260200160002060006101000a81548160ff0219169083151502179055508173ffffffffffffffffffffffffffffffffffffffff168373ffffffffffffffffffffffffffffffffffffffff167f17307eab39ab6107e8899845ad3d59bd9653f200f220920489ca2b5937696c318360405161172a9190612984565b60405180910390a3505050565b60008373ffffffffffffffffffffffffffffffffffffffff163b11156118e1578273ffffffffffffffffffffffffffffffffffffffff1663150b7a02868685856040518563ffffffff1660e01b81526004016117969493929190613856565b6020604051808303816000875af19250505080156117d257506040513d601f19601f820116820180604052508101906117cf91906138b7565b60015b611856573d8060008114611802576040519150601f19603f3d011682016040523d82523d6000602084013e611807565b606091505b50600081510361184e57836040517f64a0ae920000000000000000000000000000000000000000000000000000000081526004016118459190612af5565b60405180910390fd5b805160208201fd5b63150b7a0260e01b7bffffffffffffffffffffffffffffffffffffffffffffffffffffffff1916817bffffffffffffffffffffffffffffffffffffffffffffffffffffffff1916146118df57836040517f64a0ae920000000000000000000000000000000000000000000000000000000081526004016118d69190612af5565b60405180910390fd5b505b5050505050565b6119028282604051806020016040528060008152506122b9565b5050565b60606000604051806060016040528060408152602001613a136040913990506000835190506000810361194c576040518060200160405280600081525092505050611ea8565b6000600360028361195d91906138e4565b6119679190613947565b60046119739190613978565b67ffffffffffffffff81111561198c5761198b612bd9565b5b6040519080825280601f01601f1916602001820160405280156119be5781602001600182028036833780820191505090505b50905060008190506000805b846003836119d891906138e4565b11611ba857611a618883815181106119f3576119f26139ba565b5b602001015160f81c60f81b60f81c89600185611a0f91906138e4565b81518110611a2057611a1f6139ba565b5b602001015160f81c60f81b60f81c8a600286611a3c91906138e4565b81518110611a4d57611a4c6139ba565b5b602001015160f81c60f81b60f81c896122dd565b868581518110611a7457611a736139ba565b5b6020010187600187611a8691906138e4565b81518110611a9757611a966139ba565b5b6020010188600288611aa991906138e4565b81518110611aba57611ab96139ba565b5b6020010189600389611acc91906138e4565b81518110611add57611adc6139ba565b5b60200101847effffffffffffffffffffffffffffffffffffffffffffffffffffffffffffff191660001a9053847effffffffffffffffffffffffffffffffffffffffffffffffffffffffffffff191660001a9053847effffffffffffffffffffffffffffffffffffffffffffffffffffffffffffff191660001a9053847effffffffffffffffffffffffffffffffffffffffffffffffffffffffffffff191660001a905350505050600481611b9291906138e4565b9050600382611ba191906138e4565b91506119ca565b84600283611bb691906138e4565b03611d3b57611c12888381518110611bd157611bd06139ba565b5b602001015160f81c60f81b60f81c89600185611bed91906138e4565b81518110611bfe57611bfd6139ba565b5b602001015160f81c60f81b60f81c886123aa565b868581518110611c2557611c246139ba565b5b6020010187600187611c3791906138e4565b81518110611c4857611c476139ba565b5b6020010188600288611c5a91906138e4565b81518110611c6b57611c6a6139ba565b5b6020010189600389611c7d91906138e4565b81518110611c8e57611c8d6139ba565b5b60200101847effffffffffffffffffffffffffffffffffffffffffffffffffffffffffffff191660001a9053847effffffffffffffffffffffffffffffffffffffffffffffffffffffffffffff191660001a9053847effffffffffffffffffffffffffffffffffffffffffffffffffffffffffffff191660001a9053847effffffffffffffffffffffffffffffffffffffffffffffffffffffffffffff191660001a905350505050611e9e565b84600183611d4991906138e4565b03611e9d57611d78888381518110611d6457611d636139ba565b5b602001015160f81c60f81b60f81c87612469565b868581518110611d8b57611d8a6139ba565b5b6020010187600187611d9d91906138e4565b81518110611dae57611dad6139ba565b5b6020010188600288611dc091906138e4565b81518110611dd157611dd06139ba565b5b6020010189600389611de391906138e4565b81518110611df457611df36139ba565b5b60200101847effffffffffffffffffffffffffffffffffffffffffffffffffffffffffffff191660001a9053847effffffffffffffffffffffffffffffffffffffffffffffffffffffffffffff191660001a9053847effffffffffffffffffffffffffffffffffffffffffffffffffffffffffffff191660001a9053847effffffffffffffffffffffffffffffffffffffffffffffffffffffffffffff191660001a9053505050505b5b8296505050505050505b919050565b80600660008481526020019081526020016000209081611ecd9190613275565b507ff8e1a15aba9398e019f0b49df1a4fde98ee17ae345cb5f6b5e2c27f5033e8ce782604051611efd9190612dfb565b60405180910390a15050565b606060405180602001604052806000815250905090565b6060611f2b82611182565b506000611f36611f09565b90506000815111611f565760405180602001604052806000815250611f81565b80611f60846124f5565b604051602001611f719291906137dd565b6040516020818303038152906040525b915050919050565b60007f01ffc9a7000000000000000000000000000000000000000000000000000000007bffffffffffffffffffffffffffffffffffffffffffffffffffffffff1916827bffffffffffffffffffffffffffffffffffffffffffffffffffffffff1916149050919050565b60006002600083815260200190815260200160002060009054906101000a900473ffffffffffffffffffffffffffffffffffffffff169050919050565b80806120695750600073ffffffffffffffffffffffffffffffffffffffff168273ffffffffffffffffffffffffffffffffffffffff1614155b1561219d57600061207984611182565b9050600073ffffffffffffffffffffffffffffffffffffffff168373ffffffffffffffffffffffffffffffffffffffff16141580156120e457508273ffffffffffffffffffffffffffffffffffffffff168173ffffffffffffffffffffffffffffffffffffffff1614155b80156120f757506120f58184610dc4565b155b1561213957826040517fa9fbf51f0000000000000000000000000000000000000000000000000000000081526004016121309190612af5565b60405180910390fd5b811561219b57838573ffffffffffffffffffffffffffffffffffffffff168273ffffffffffffffffffffffffffffffffffffffff167f8c5be1e5ebec7d5bd14f71427d1e84f3dd0314c0f7b2291e5b200ac8c7c3b92560405160405180910390a45b505b836004600085815260200190815260200160002060006101000a81548173ffffffffffffffffffffffffffffffffffffffff021916908373ffffffffffffffffffffffffffffffffffffffff16021790555050505050565b6122008383836125c3565b6122b457600073ffffffffffffffffffffffffffffffffffffffff168373ffffffffffffffffffffffffffffffffffffffff160361227557806040517f7e27328900000000000000000000000000000000000000000000000000000000815260040161226c9190612dfb565b60405180910390fd5b81816040517f177e802f0000000000000000000000000000000000000000000000000000000081526004016122ab9291906139e9565b60405180910390fd5b505050565b6122c38383612684565b6122d86122ce611247565b6000858585611737565b505050565b6000806000808460028960ff16901c60ff1681518110612300576122ff6139ba565b5b602001015160f81c60f81b8560048960ff16901c600460038c1660ff16901b1760ff1681518110612334576123336139ba565b5b602001015160f81c60f81b8660068960ff16901c6002600f8c1660ff16901b1760ff1681518110612368576123676139ba565b5b602001015160f81c60f81b87603f8a1660ff168151811061238c5761238b6139ba565b5b602001015160f81c60f81b9350935093509350945094509450949050565b6000806000808460028860ff16901c60ff16815181106123cd576123cc6139ba565b5b602001015160f81c60f81b8560048860ff16901c600460038b1660ff16901b1760ff1681518110612401576124006139ba565b5b602001015160f81c60f81b866002600f8a1660ff16901b60ff168151811061242c5761242b6139ba565b5b602001015160f81c60f81b7f3d00000000000000000000000000000000000000000000000000000000000000935093509350935093509350935093565b6000806000808460028760ff16901c60ff168151811061248c5761248b6139ba565b5b602001015160f81c60f81b8560046003891660ff16901b60ff16815181106124b7576124b66139ba565b5b602001015160f81c60f81b7f3d0000000000000000000000000000000000000000000000000000000000000080935093509350935092959194509250565b6060600060016125048461277d565b01905060008167ffffffffffffffff81111561252357612522612bd9565b5b6040519080825280601f01601f1916602001820160405280156125555781602001600182028036833780820191505090505b509050600082602083010190505b6001156125b8578080600190039150507f3031323334353637383961626364656600000000000000000000000000000000600a86061a8153600a85816125ac576125ab613918565b5b04945060008503612563575b819350505050919050565b60008073ffffffffffffffffffffffffffffffffffffffff168373ffffffffffffffffffffffffffffffffffffffff161415801561267b57508273ffffffffffffffffffffffffffffffffffffffff168473ffffffffffffffffffffffffffffffffffffffff16148061263c575061263b8484610dc4565b5b8061267a57508273ffffffffffffffffffffffffffffffffffffffff166126628361120a565b73ffffffffffffffffffffffffffffffffffffffff16145b5b90509392505050565b600073ffffffffffffffffffffffffffffffffffffffff168273ffffffffffffffffffffffffffffffffffffffff16036126f65760006040517f64a0ae920000000000000000000000000000000000000000000000000000000081526004016126ed9190612af5565b60405180910390fd5b600061270483836000611261565b9050600073ffffffffffffffffffffffffffffffffffffffff168173ffffffffffffffffffffffffffffffffffffffff16146127785760006040517f73c6ac6e00000000000000000000000000000000000000000000000000000000815260040161276f9190612af5565b60405180910390fd5b505050565b600080600090507a184f03e93ff9f4daa797ed6e38ed64bf6a1f01000000000000000083106127db577a184f03e93ff9f4daa797ed6e38ed64bf6a1f01000000000000000083816127d1576127d0613918565b5b0492506040810190505b6d04ee2d6d415b85acef81000000008310612818576d04ee2d6d415b85acef8100000000838161280e5761280d613918565b5b0492506020810190505b662386f26fc10000831061284757662386f26fc10000838161283d5761283c613918565b5b0492506010810190505b6305f5e1008310612870576305f5e100838161286657612865613918565b5b0492506008810190505b612710831061289557612710838161288b5761288a613918565b5b0492506004810190505b606483106128b857606483816128ae576128ad613918565b5b0492506002810190505b600a83106128c7576001810190505b80915050919050565b6000604051905090565b600080fd5b600080fd5b60007fffffffff0000000000000000000000000000000000000000000000000000000082169050919050565b612919816128e4565b811461292457600080fd5b50565b60008135905061293681612910565b92915050565b600060208284031215612952576129516128da565b5b600061296084828501612927565b91505092915050565b60008115159050919050565b61297e81612969565b82525050565b60006020820190506129996000830184612975565b92915050565b600081519050919050565b600082825260208201905092915050565b60005b838110156129d95780820151818401526020810190506129be565b60008484015250505050565b6000601f19601f8301169050919050565b6000612a018261299f565b612a0b81856129aa565b9350612a1b8185602086016129bb565b612a24816129e5565b840191505092915050565b60006020820190508181036000830152612a4981846129f6565b905092915050565b6000819050919050565b612a6481612a51565b8114612a6f57600080fd5b50565b600081359050612a8181612a5b565b92915050565b600060208284031215612a9d57612a9c6128da565b5b6000612aab84828501612a72565b91505092915050565b600073ffffffffffffffffffffffffffffffffffffffff82169050919050565b6000612adf82612ab4565b9050919050565b612aef81612ad4565b82525050565b6000602082019050612b0a6000830184612ae6565b92915050565b612b1981612ad4565b8114612b2457600080fd5b50565b600081359050612b3681612b10565b92915050565b60008060408385031215612b5357612b526128da565b5b6000612b6185828601612b27565b9250506020612b7285828601612a72565b9150509250929050565b600080600060608486031215612b9557612b946128da565b5b6000612ba386828701612b27565b9350506020612bb486828701612b27565b9250506040612bc586828701612a72565b9150509250925092565b600080fd5b600080fd5b7f4e487b7100000000000000000000000000000000000000000000000000000000600052604160045260246000fd5b612c11826129e5565b810181811067ffffffffffffffff82111715612c3057612c2f612bd9565b5b80604052505050565b6000612c436128d0565b9050612c4f8282612c08565b919050565b600067ffffffffffffffff821115612c6f57612c6e612bd9565b5b612c78826129e5565b9050602081019050919050565b82818337600083830152505050565b6000612ca7612ca284612c54565b612c39565b905082815260208101848484011115612cc357612cc2612bd4565b5b612cce848285612c85565b509392505050565b600082601f830112612ceb57612cea612bcf565b5b8135612cfb848260208601612c94565b91505092915050565b60008060008060808587031215612d1e57612d1d6128da565b5b6000612d2c87828801612a72565b945050602085013567ffffffffffffffff811115612d4d57612d4c6128df565b5b612d5987828801612cd6565b935050604085013567ffffffffffffffff811115612d7a57612d796128df565b5b612d8687828801612cd6565b925050606085013567ffffffffffffffff811115612da757612da66128df565b5b612db387828801612cd6565b91505092959194509250565b600060208284031215612dd557612dd46128da565b5b6000612de384828501612b27565b91505092915050565b612df581612a51565b82525050565b6000602082019050612e106000830184612dec565b92915050565b612e1f81612969565b8114612e2a57600080fd5b50565b600081359050612e3c81612e16565b92915050565b60008060408385031215612e5957612e586128da565b5b6000612e6785828601612b27565b9250506020612e7885828601612e2d565b9150509250929050565b600067ffffffffffffffff821115612e9d57612e9c612bd9565b5b612ea6826129e5565b9050602081019050919050565b6000612ec6612ec184612e82565b612c39565b905082815260208101848484011115612ee257612ee1612bd4565b5b612eed848285612c85565b509392505050565b600082601f830112612f0a57612f09612bcf565b5b8135612f1a848260208601612eb3565b91505092915050565b60008060008060808587031215612f3d57612f3c6128da565b5b6000612f4b87828801612b27565b9450506020612f5c87828801612b27565b9350506040612f6d87828801612a72565b925050606085013567ffffffffffffffff811115612f8e57612f8d6128df565b5b612f9a87828801612ef5565b91505092959194509250565b60008060408385031215612fbd57612fbc6128da565b5b6000612fcb85828601612b27565b9250506020612fdc85828601612b27565b9150509250929050565b6000606082019050818103600083015261300081866129f6565b9050818103602083015261301481856129f6565b9050818103604083015261302881846129f6565b9050949350505050565b7f4e487b7100000000000000000000000000000000000000000000000000000000600052602260045260246000fd5b6000600282049050600182168061307957607f821691505b60208210810361308c5761308b613032565b5b50919050565b60006060820190506130a76000830186612ae6565b6130b46020830185612dec565b6130c16040830184612ae6565b949350505050565b60008190508160005260206000209050919050565b60006020601f8301049050919050565b600082821b905092915050565b60006008830261312b7fffffffffffffffffffffffffffffffffffffffffffffffffffffffffffffffff826130ee565b61313586836130ee565b95508019841693508086168417925050509392505050565b6000819050919050565b600061317261316d61316884612a51565b61314d565b612a51565b9050919050565b6000819050919050565b61318c83613157565b6131a061319882613179565b8484546130fb565b825550505050565b600090565b6131b56131a8565b6131c0818484613183565b505050565b5b818110156131e4576131d96000826131ad565b6001810190506131c6565b5050565b601f821115613229576131fa816130c9565b613203846130de565b81016020851015613212578190505b61322661321e856130de565b8301826131c5565b50505b505050565b600082821c905092915050565b600061324c6000198460080261322e565b1980831691505092915050565b6000613265838361323b565b9150826002028217905092915050565b61327e8261299f565b67ffffffffffffffff81111561329757613296612bd9565b5b6132a18254613061565b6132ac8282856131e8565b600060209050601f8311600181146132df57600084156132cd578287015190505b6132d78582613259565b86555061333f565b601f1984166132ed866130c9565b60005b82811015613315578489015182556001820191506020850194506020810190506132f0565b86831015613332578489015161332e601f89168261323b565b8355505b6001600288020188555050505b505050505050565b7f416c7265616479206d696e746564207468697320626164676500000000000000600082015250565b600061337d6019836129aa565b915061338882613347565b602082019050919050565b600060208201905081810360008301526133ac81613370565b9050919050565b7f4261646765206d65746164617461206e6f742073657400000000000000000000600082015250565b60006133e96016836129aa565b91506133f4826133b3565b602082019050919050565b60006020820190508181036000830152613418816133dc565b9050919050565b7f4e487b7100000000000000000000000000000000000000000000000000000000600052601160045260246000fd5b600061345982612a51565b91507fffffffffffffffffffffffffffffffffffffffffffffffffffffffffffffffff820361348b5761348a61341f565b5b600182019050919050565b600081905092915050565b7f7b00000000000000000000000000000000000000000000000000000000000000600082015250565b60006134d7600183613496565b91506134e2826134a1565b600182019050919050565b7f226e616d65223a22000000000000000000000000000000000000000000000000600082015250565b6000613523600883613496565b915061352e826134ed565b600882019050919050565b60006135448261299f565b61354e8185613496565b935061355e8185602086016129bb565b80840191505092915050565b7f222c000000000000000000000000000000000000000000000000000000000000600082015250565b60006135a0600283613496565b91506135ab8261356a565b600282019050919050565b7f226465736372697074696f6e223a220000000000000000000000000000000000600082015250565b60006135ec600f83613496565b91506135f7826135b6565b600f82019050919050565b7f22696d616765223a220000000000000000000000000000000000000000000000600082015250565b6000613638600983613496565b915061364382613602565b600982019050919050565b7f2200000000000000000000000000000000000000000000000000000000000000600082015250565b6000613684600183613496565b915061368f8261364e565b600182019050919050565b7f7d00000000000000000000000000000000000000000000000000000000000000600082015250565b60006136d0600183613496565b91506136db8261369a565b600182019050919050565b60006136f1826134ca565b91506136fc82613516565b91506137088286613539565b915061371382613593565b915061371e826135df565b915061372a8285613539565b915061373582613593565b91506137408261362b565b915061374c8284613539565b915061375782613677565b9150613762826136c3565b9150819050949350505050565b7f646174613a6170706c69636174696f6e2f6a736f6e3b6261736536342c000000600082015250565b60006137a5601d83613496565b91506137b08261376f565b601d82019050919050565b60006137c682613798565b91506137d28284613539565b915081905092915050565b60006137e98285613539565b91506137f58284613539565b91508190509392505050565b600081519050919050565b600082825260208201905092915050565b600061382882613801565b613832818561380c565b93506138428185602086016129bb565b61384b816129e5565b840191505092915050565b600060808201905061386b6000830187612ae6565b6138786020830186612ae6565b6138856040830185612dec565b8181036060830152613897818461381d565b905095945050505050565b6000815190506138b181612910565b92915050565b6000602082840312156138cd576138cc6128da565b5b60006138db848285016138a2565b91505092915050565b60006138ef82612a51565b91506138fa83612a51565b92508282019050808211156139125761391161341f565b5b92915050565b7f4e487b7100000000000000000000000000000000000000000000000000000000600052601260045260246000fd5b600061395282612a51565b915061395d83612a51565b92508261396d5761396c613918565b5b828204905092915050565b600061398382612a51565b915061398e83612a51565b925082820261399c81612a51565b915082820484148315176139b3576139b261341f565b5b5092915050565b7f4e487b7100000000000000000000000000000000000000000000000000000000600052603260045260246000fd5b60006040820190506139fe6000830185612ae6565b613a0b6020830184612dec565b939250505056fe4142434445464748494a4b4c4d4e4f505152535455565758595a6162636465666768696a6b6c6d6e6f707172737475767778797a303132333435363738392b2fa2646970667358221220be42f0df504c85aad38b4dd15413e4526b7555e5126f9ef84acc4d15e441c24764736f6c634300081c0033",
  "linkReferences": {},
  "deployedLinkReferences": {}
}