{
  "_format": "hh-sol-artifact-1",
  "contractName": "HulkBadges",
  "sourceName": "contracts/HulkBadges.sol",
  "abi": [
    {
      "inputs": [],
      "stateMutability": "nonpayable",
      "type": "constructor"
    },
    {
      "inputs": [
        {
          "internalType": "address",
          "name": "sender",
          "type": "address"
        },
        {
          "internalType": "uint256",
          "name": "tokenId",
          "type": "uint256"
        },
        {
          "internalType": "address",
          "name": "owner",
          "type": "address"
        }
      ],
      "name": "ERC721IncorrectOwner",
      "type": "error"
    },
    {
      "inputs": [
        {
          "internalType": "address",
          "name": "operator",
          "type": "address"
        },
        {
          "internalType": "uint256",
          "name": "tokenId",
          "type": "uint256"
        }
      ],
      "name": "ERC721InsufficientApproval",
      "type": "error"
    },
    {
      "inputs": [
        {
          "internalType": "address",
          "name": "approver",
          "type": "address"
        }
      ],
      "name": "ERC721InvalidApprover",
      "type": "error"
    },
    {
      "inputs": [
        {
          "internalType": "address",
          "name": "operator",
          "type": "address"
        }
      ],
      "name": "ERC721InvalidOperator",
      "type": "error"
    },
    {
      "inputs": [
        {
          "internalType": "address",
          "name": "owner",
          "type": "address"
        }
      ],
      "name": "ERC721InvalidOwner",
      "type": "error"
    },
    {
      "inputs": [
        {
          "internalType": "address",
          "name": "receiver",
          "type": "address"
        }
      ],
      "name": "ERC721InvalidReceiver",
      "type": "error"
    },
    {
      "inputs": [
        {
          "internalType": "address",
          "name": "sender",
          "type": "address"
        }
      ],
      "name": "ERC721InvalidSender",
      "type": "error"
    },
    {
      "inputs": [
        {
          "internalType": "uint256",
          "name": "tokenId",
          "type": "uint256"
        }
      ],
      "name": "ERC721NonexistentToken",
      "type": "error"
    },
    {
      "inputs": [
        {
          "internalType": "address",
          "name": "owner",
          "type": "address"
        }
      ],
      "name": "OwnableInvalidOwner",
      "type": "error"
    },
    {
      "inputs": [
        {
          "internalType": "address",
          "name": "account",
          "type": "address"
        }
      ],
      "name": "OwnableUnauthorizedAccount",
      "type": "error"
    },
    {
      "anonymous": false,
      "inputs": [
        {
          "indexed": true,
          "internalType": "address",
          "name": "owner",
          "type": "address"
        },
        {
          "indexed": true,
          "internalType": "address",
          "name": "approved",
          "type": "address"
        },
        {
          "indexed": true,
          "internalType": "uint256",
          "name": "tokenId",
          "type": "uint256"
        }
      ],
      "name": "Approval",
      "type": "event"
    },
    {
      "anonymous": false,
      "inputs": [
        {
          "indexed": true,
          "internalType": "address",
          "name": "owner",
          "type": "address"
        },
        {
          "indexed": true,
          "internalType": "address",
          "name": "operator",
          "type": "address"
        },
        {
          "indexed": false,
          "internalType": "bool",
          "name": "approved",
          "type": "bool"
        }
      ],
      "name": "ApprovalForAll",
      "type": "event"
    },
    {
      "anonymous": false,
      "inputs": [
        {
          "indexed": true,
          "internalType": "address",
          "name": "to",
          "type": "address"
        },
        {
          "indexed": true,
          "internalType": "uint256",
          "name": "badgeId",
          "type": "uint256"
        },
        {
          "indexed": false,
          "internalType": "uint256",
          "name": "tokenId",
          "type": "uint256"
        },
        {
          "indexed": false,
          "internalType": "string",
          "name": "tokenURI",
          "type": "string"
        }
      ],
      "name": "BadgeMinted",
      "type": "event"
    },
    {
      "anonymous": false,
      "inputs": [
        {
          "indexed": false,
          "internalType": "uint256",
          "name": "_fromTokenId",
          "type": "uint256"
        },
        {
          "indexed": false,
          "internalType": "uint256",
          "name": "_toTokenId",
          "type": "uint256"
        }
      ],
      "name": "BatchMetadataUpdate",
      "type": "event"
    },
    {
      "anonymous": false,
      "inputs": [
        {
          "indexed": false,
          "internalType": "uint256",
          "name": "_tokenId",
          "type": "uint256"
        }
      ],
      "name": "MetadataUpdate",
      "type": "event"
    },
    {
      "anonymous": false,
      "inputs": [
        {
          "indexed": true,
          "internalType": "address",
          "name": "previousOwner",
          "type": "address"
        },
        {
          "indexed": true,
          "internalType": "address",
          "name": "newOwner",
          "type": "address"
        }
      ],
      "name": "OwnershipTransferred",
      "type": "event"
    },
    {
      "anonymous": false,
      "inputs": [
        {
          "indexed": true,
          "internalType": "address",
          "name": "from",
          "type": "address"
        },
        {
          "indexed": true,
          "internalType": "address",
          "name": "to",
          "type": "address"
        },
        {
          "indexed": true,
          "internalType": "uint256",
          "name": "tokenId",
          "type": "uint256"
        }
      ],
      "name": "Transfer",
      "type": "event"
    },
    {
      "inputs": [
        {
          "internalType": "address",
          "name": "to",
          "type": "address"
        },
        {
          "internalType": "uint256",
          "name": "tokenId",
          "type": "uint256"
        }
      ],
      "name": "approve",
      "outputs": [],
      "stateMutability": "nonpayable",
      "type": "function"
    },
    {
      "inputs": [
        {
          "internalType": "uint256",
          "name": "",
          "type": "uint256"
        }
      ],
      "name": "badgeMetas",
      "outputs": [
        {
          "internalType": "string",
          "name": "name",
          "type": "string"
        },
        {
          "internalType": "string",
          "name": "description",
          "type": "string"
        },
        {
          "internalType": "string",
          "name": "image",
          "type": "string"
        }
      ],
      "stateMutability": "view",
      "type": "function"
    },
    {
      "inputs": [
        {
          "internalType": "address",
          "name": "owner",
          "type": "address"
        }
      ],
      "name": "balanceOf",
      "outputs": [
        {
          "internalType": "uint256",
          "name": "",
          "type": "uint256"
        }
      ],
      "stateMutability": "view",
      "type": "function"
    },
    {
      "inputs": [
        {
          "internalType": "uint256",
          "name": "tokenId",
          "type": "uint256"
        }
      ],
      "name": "getApproved",
      "outputs": [
        {
          "internalType": "address",
          "name": "",
          "type": "address"
        }
      ],
      "stateMutability": "view",
      "type": "function"
    },
    {
      "inputs": [
        {
          "internalType": "address",
          "name": "owner",
          "type": "address"
        },
        {
          "internalType": "address",
          "name": "operator",
          "type": "address"
        }
      ],
      "name": "isApprovedForAll",
      "outputs": [
        {
          "internalType": "bool",
          "name": "",
          "type": "bool"
        }
      ],
      "stateMutability": "view",
      "type": "function"
    },
    {
      "inputs": [
        {
          "internalType": "uint256",
          "name": "badgeId",
          "type": "uint256"
        }
      ],
      "name": "mintBadge",
      "outputs": [],
      "stateMutability": "nonpayable",
      "type": "function"
    },
    {
      "inputs": [
        {
          "internalType": "address",
          "name": "",
          "type": "address"
        },
        {
          "internalType": "uint256",
          "name": "",
          "type": "uint256"
        }
      ],
      "name": "mintedBadge",
      "outputs": [
        {
          "internalType": "bool",
          "name": "",
          "type": "bool"
        }
      ],
      "stateMutability": "view",
      "type": "function"
    },
    {
      "inputs": [],
      "name": "name",
      "outputs": [
        {
          "internalType": "string",
          "name": "",
          "type": "string"
        }
      ],
      "stateMutability": "view",
      "type": "function"
    },
    {
      "inputs": [],
      "name": "nextTokenId",
      "outputs": [
        {
          "internalType": "uint256",
          "name": "",
          "type": "uint256"
        }
      ],
      "stateMutability": "view",
      "type": "function"
    },
    {
      "inputs": [],
      "name": "owner",
      "outputs": [
        {
          "internalType": "address",
          "name": "",
          "type": "address"
        }
      ],
      "stateMutability": "view",
      "type": "function"
    },
    {
      "inputs": [
        {
          "internalType": "address",
          "name": "to",
          "type": "address"
        },
        {
          "internalType": "uint256",
          "name": "badgeId",
          "type": "uint256"
        }
      ],
      "name": "ownerMint",
      "outputs": [],
      "stateMutability": "nonpayable",
      "type": "function"
    },
    {
      "inputs": [
        {
          "internalType": "uint256",
          "name": "tokenId",
          "type": "uint256"
        }
      ],
      "name": "ownerOf",
      "outputs": [
        {
          "internalType": "address",
          "name": "",
          "type": "address"
        }
      ],
      "stateMutability": "view",
      "type": "function"
    },
    {
      "inputs": [],
      "name": "renounceOwnership",
      "outputs": [],
      "stateMutability": "nonpayable",
      "type": "function"
    },
    {
      "inputs": [
        {
          "internalType": "address",
          "name": "from",
          "type": "address"
        },
        {
          "internalType": "address",
          "name": "to",
          "type": "address"
        },
        {
          "internalType": "uint256",
          "name": "tokenId",
          "type": "uint256"
        }
      ],
      "name": "safeTransferFrom",
      "outputs": [],
      "stateMutability": "nonpayable",
      "type": "function"
    },
    {
      "inputs": [
        {
          "internalType": "address",
          "name": "from",
          "type": "address"
        },
        {
          "internalType": "address",
          "name": "to",
          "type": "address"
        },
        {
          "internalType": "uint256",
          "name": "tokenId",
          "type": "uint256"
        },
        {
          "internalType": "bytes",
          "name": "data",
          "type": "bytes"
        }
      ],
      "name": "safeTransferFrom",
      "outputs": [],
      "stateMutability": "nonpayable",
      "type": "function"
    },
    {
      "inputs": [
        {
          "internalType": "address",
          "name": "operator",
          "type": "address"
        },
        {
          "internalType": "bool",
          "name": "approved",
          "type": "bool"
        }
      ],
      "name": "setApprovalForAll",
      "outputs": [],
      "stateMutability": "nonpayable",
      "type": "function"
    },
    {
      "inputs": [
        {
          "internalType": "uint256",
          "name": "badgeId",
          "type": "uint256"
        },
        {
          "internalType": "string",
          "name": "name",
          "type": "string"
        },
        {
          "internalType": "string",
          "name": "description",
          "type": "string"
        },
        {
          "internalType": "string",
          "name": "image",
          "type": "string"
        }
      ],
      "name": "setBadgeMeta",
      "outputs": [],
      "stateMutability": "nonpayable",
      "type": "function"
    },
    {
      "inputs": [
        {
          "internalType": "bytes4",
          "name": "interfaceId",
          "type": "bytes4"
        }
      ],
      "name": "supportsInterface",
      "outputs": [
        {
          "internalType": "bool",
          "name": "",
          "type": "bool"
        }
      ],
      "stateMutability": "view",
      "type": "function"
    },
    {
      "inputs": [],
      "name": "symbol",
      "outputs": [
        {
          "internalType": "string",
          "name": "",
          "type": "string"
        }
      ],
      "stateMutability": "view",
      "type": "function"
    },
    {
      "inputs": [
        {
          "internalType": "uint256",
          "name": "tokenId",
          "type": "uint256"
        }
      ],
      "name": "tokenURI",
      "outputs": [
        {
          "internalType": "string",
          "name": "",
          "type": "string"
        }
      ],
      "stateMutability": "view",
      "type": "function"
    },
    {
      "inputs": [
        {
          "internalType": "address",
          "name": "from",
          "type": "address"
        },
        {
          "internalType": "address",
          "name": "to",
          "type": "address"
        },
        {
          "internalType": "uint256",
          "name": "tokenId",
          "type": "uint256"
        }
      ],
      "name": "transferFrom",
      "outputs": [],
      "stateMutability": "nonpayable",
      "type": "function"
    },
    {
      "inputs": [
        {
          "internalType": "address",
          "name": "newOwner",
          "type": "address"
        }
      ],
      "name": "transferOwnership",
      "outputs": [],
      "stateMutability": "nonpayable",
      "type": "function"
    }
  ],
  "bytecode": "0x608060405234801561001057600080fd5b50336040518060400160405280600981526020017f48756c6b426164676500000000000000000000000000000000000000000000008152506040518060400160405280600481526020017f484c4b4200000000000000000000000000000000000000000000000000000000815250816000908161008d919061043d565b50806001908161009d919061043d565b505050600073ffffffffffffffffffffffffffffffffffffffff168173ffffffffffffffffffffffffffffffffffffffff16036101125760006040517f1e4fbdf70000000000000000000000000000000000000000000000000000000081526004016101099190610550565b60405180910390fd5b6101218161012760201b60201c565b5061056b565b6000600760009054906101000a900473ffffffffffffffffffffffffffffffffffffffff16905081600760006101000a81548173ffffffffffffffffffffffffffffffffffffffff021916908373ffffffffffffffffffffffffffffffffffffffff1602179055508173ffffffffffffffffffffffffffffffffffffffff168173ffffffffffffffffffffffffffffffffffffffff167f8be0079c531659141344cd1fd0a4f28419497f9722a3daafe3b4186f6b6457e060405160405180910390a35050565b600081519050919050565b7f4e487b7100000000000000000000000000000000000000000000000000000000600052604160045260246000fd5b7f4e487b7100000000000000000000000000000000000000000000000000000000600052602260045260246000fd5b6000600282049050600182168061026e57607f821691505b60208210810361028157610280610227565b5b50919050565b60008190508160005260206000209050919050565b60006020601f8301049050919050565b600082821b905092915050565b6000600883026102e97fffffffffffffffffffffffffffffffffffffffffffffffffffffffffffffffff826102ac565b6102f386836102ac565b95508019841693508086168417925050509392505050565b6000819050919050565b6000819050919050565b600061033a6103356103308461030b565b610315565b61030b565b9050919050565b6000819050919050565b6103548361031f565b61036861036082610341565b8484546102b9565b825550505050565b600090565b61037d610370565b61038881848461034b565b505050565b5b818110156103ac576103a1600082610375565b60018101905061038e565b5050565b601f8211156103f1576103c281610287565b6103cb8461029c565b810160208510156103da578190505b6103ee6103e68561029c565b83018261038d565b50505b505050565b600082821c905092915050565b6000610414600019846008026103f6565b1980831691505092915050565b600061042d8383610403565b9150826002028217905092915050565b610446826101ed565b67ffffffffffffffff81111561045f5761045e6101f8565b5b6104698254610256565b6104748282856103b0565b600060209050601f8311600181146104a75760008415610495578287015190505b61049f8582610421565b865550610507565b601f1984166104b586610287565b60005b828110156104dd578489015182556001820191506020850194506020810190506104b8565b868310156104fa57848901516104f6601f891682610403565b8355505b6001600288020188555050505b505050505050565b600073ffffffffffffffffffffffffffffffffffffffff82169050919050565b600061053a8261050f565b9050919050565b61054a8161052f565b82525050565b60006020820190506105656000830184610541565b92915050565b6133248061057a6000396000f3fe608060405234801561001057600080fd5b50600436106101425760003560e01c8063715018a6116100b8578063b88d4fde1161007c578063b88d4fde14610361578063c3c63edc1461037d578063c87b56dd14610399578063e985e9c5146103c9578063f2fde38b146103f9578063fc8f21651461041557610142565b8063715018a6146102e157806375794a3c146102eb5780638da5cb5b1461030957806395d89b4114610327578063a22cb4651461034557610142565b806323b872dd1161010a57806323b872dd14610211578063293291fe1461022d57806342842e0e14610249578063484b973c146102655780636352211e1461028157806370a08231146102b157610142565b806301ffc9a71461014757806306fdde0314610177578063081812fc14610195578063095ea7b3146101c557806314b1255c146101e1575b600080fd5b610161600480360381019061015c9190612504565b610447565b60405161016e919061254c565b60405180910390f35b61017f6104a8565b60405161018c91906125f7565b60405180910390f35b6101af60048036038101906101aa919061264f565b61053a565b6040516101bc91906126bd565b60405180910390f35b6101df60048036038101906101da9190612704565b610556565b005b6101fb60048036038101906101f69190612704565b61056c565b604051610208919061254c565b60405180910390f35b61022b60048036038101906102269190612744565b61059b565b005b610247600480360381019061024291906128cc565b61069d565b005b610263600480360381019061025e9190612744565b61071e565b005b61027f600480360381019061027a9190612704565b61073e565b005b61029b6004803603810190610296919061264f565b610a82565b6040516102a891906126bd565b60405180910390f35b6102cb60048036038101906102c69190612987565b610a94565b6040516102d891906129c3565b60405180910390f35b6102e9610b4e565b005b6102f3610b62565b60405161030091906129c3565b60405180910390f35b610311610b68565b60405161031e91906126bd565b60405180910390f35b61032f610b92565b60405161033c91906125f7565b60405180910390f35b61035f600480360381019061035a9190612a0a565b610c24565b005b61037b60048036038101906103769190612aeb565b610c3a565b005b6103976004803603810190610392919061264f565b610c5f565b005b6103b360048036038101906103ae919061264f565b611038565b6040516103c091906125f7565b60405180910390f35b6103e360048036038101906103de9190612b6e565b61114b565b6040516103f0919061254c565b60405180910390f35b610413600480360381019061040e9190612987565b6111df565b005b61042f600480360381019061042a919061264f565b611265565b60405161043e93929190612bae565b60405180910390f35b6000634906490660e01b7bffffffffffffffffffffffffffffffffffffffffffffffffffffffff1916827bffffffffffffffffffffffffffffffffffffffffffffffffffffffff191614806104a157506104a082611427565b5b9050919050565b6060600080546104b790612c29565b80601f01602080910402602001604051908101604052809291908181526020018280546104e390612c29565b80156105305780601f1061050557610100808354040283529160200191610530565b820191906000526020600020905b81548152906001019060200180831161051357829003601f168201915b5050505050905090565b600061054582611509565b5061054f82611591565b9050919050565b61056882826105636115ce565b6115d6565b5050565b60096020528160005260406000206020528060005260406000206000915091509054906101000a900460ff1681565b600073ffffffffffffffffffffffffffffffffffffffff168273ffffffffffffffffffffffffffffffffffffffff160361060d5760006040517f64a0ae9200000000000000000000000000000000000000000000000000000000815260040161060491906126bd565b60405180910390fd5b6000610621838361061c6115ce565b6115e8565b90508373ffffffffffffffffffffffffffffffffffffffff168173ffffffffffffffffffffffffffffffffffffffff1614610697578382826040517f64283d7b00000000000000000000000000000000000000000000000000000000815260040161068e93929190612c5a565b60405180910390fd5b50505050565b6106a5611802565b604051806060016040528084815260200183815260200182815250600a600086815260200190815260200160002060008201518160000190816106e89190612e3d565b5060208201518160010190816106fe9190612e3d565b5060408201518160020190816107149190612e3d565b5090505050505050565b61073983838360405180602001604052806000815250610c3a565b505050565b610746611802565b6000600a600083815260200190815260200160002060405180606001604052908160008201805461077690612c29565b80601f01602080910402602001604051908101604052809291908181526020018280546107a290612c29565b80156107ef5780601f106107c4576101008083540402835291602001916107ef565b820191906000526020600020905b8154815290600101906020018083116107d257829003601f168201915b5050505050815260200160018201805461080890612c29565b80601f016020809104026020016040519081016040528092919081815260200182805461083490612c29565b80156108815780601f1061085657610100808354040283529160200191610881565b820191906000526020600020905b81548152906001019060200180831161086457829003601f168201915b5050505050815260200160028201805461089a90612c29565b80601f01602080910402602001604051908101604052809291908181526020018280546108c690612c29565b80156109135780601f106108e857610100808354040283529160200191610913565b820191906000526020600020905b8154815290600101906020018083116108f657829003601f168201915b5050505050815250509050600081600001515111610966576040517f08c379a000000000000000000000000000000000000000000000000000000000815260040161095d90612f5b565b60405180910390fd5b60006008600081548092919061097b90612faa565b91905055905061098b8482611889565b6000610996846118a7565b6040516020016109a691906130c6565b60405160208183030381529060405290506109c18282611975565b6001600960008773ffffffffffffffffffffffffffffffffffffffff1673ffffffffffffffffffffffffffffffffffffffff168152602001908152602001600020600086815260200190815260200160002060006101000a81548160ff021916908315150217905550838573ffffffffffffffffffffffffffffffffffffffff167f5436dc28583773ca1024aefe4527413e52bd65f3829cc6e138ee939f6653d9c18484604051610a739291906130f3565b60405180910390a35050505050565b6000610a8d82611509565b9050919050565b60008073ffffffffffffffffffffffffffffffffffffffff168273ffffffffffffffffffffffffffffffffffffffff1603610b075760006040517f89c62b64000000000000000000000000000000000000000000000000000000008152600401610afe91906126bd565b60405180910390fd5b600360008373ffffffffffffffffffffffffffffffffffffffff1673ffffffffffffffffffffffffffffffffffffffff168152602001908152602001600020549050919050565b610b56611802565b610b6060006119d1565b565b60085481565b6000600760009054906101000a900473ffffffffffffffffffffffffffffffffffffffff16905090565b606060018054610ba190612c29565b80601f0160208091040260200160405190810160405280929190818152602001828054610bcd90612c29565b8015610c1a5780601f10610bef57610100808354040283529160200191610c1a565b820191906000526020600020905b815481529060010190602001808311610bfd57829003601f168201915b5050505050905090565b610c36610c2f6115ce565b8383611a97565b5050565b610c4584848461059b565b610c59610c506115ce565b85858585611c06565b50505050565b600960003373ffffffffffffffffffffffffffffffffffffffff1673ffffffffffffffffffffffffffffffffffffffff168152602001908152602001600020600082815260200190815260200160002060009054906101000a900460ff1615610cfd576040517f08c379a0000000000000000000000000000000000000000000000000000000008152600401610cf49061316f565b60405180910390fd5b6000600a6000838152602001908152602001600020604051806060016040529081600082018054610d2d90612c29565b80601f0160208091040260200160405190810160405280929190818152602001828054610d5990612c29565b8015610da65780601f10610d7b57610100808354040283529160200191610da6565b820191906000526020600020905b815481529060010190602001808311610d8957829003601f168201915b50505050508152602001600182018054610dbf90612c29565b80601f0160208091040260200160405190810160405280929190818152602001828054610deb90612c29565b8015610e385780601f10610e0d57610100808354040283529160200191610e38565b820191906000526020600020905b815481529060010190602001808311610e1b57829003601f168201915b50505050508152602001600282018054610e5190612c29565b80601f0160208091040260200160405190810160405280929190818152602001828054610e7d90612c29565b8015610eca5780601f10610e9f57610100808354040283529160200191610eca565b820191906000526020600020905b815481529060010190602001808311610ead57829003601f168201915b5050505050815250509050600081600001515111610f1d576040517f08c379a0000000000000000000000000000000000000000000000000000000008152600401610f1490612f5b565b60405180910390fd5b600060086000815480929190610f3290612faa565b919050559050610f423382611889565b6000610f4d846118a7565b604051602001610f5d91906130c6565b6040516020818303038152906040529050610f788282611975565b6001600960003373ffffffffffffffffffffffffffffffffffffffff1673ffffffffffffffffffffffffffffffffffffffff168152602001908152602001600020600086815260200190815260200160002060006101000a81548160ff021916908315150217905550833373ffffffffffffffffffffffffffffffffffffffff167f5436dc28583773ca1024aefe4527413e52bd65f3829cc6e138ee939f6653d9c1848460405161102a9291906130f3565b60405180910390a350505050565b606061104382611509565b50600060066000848152602001908152602001600020805461106490612c29565b80601f016020809104026020016040519081016040528092919081815260200182805461109090612c29565b80156110dd5780601f106110b2576101008083540402835291602001916110dd565b820191906000526020600020905b8154815290600101906020018083116110c057829003601f168201915b5050505050905060006110ee611db7565b90506000815103611103578192505050611146565b60008251111561113857808260405160200161112092919061318f565b60405160208183030381529060405292505050611146565b61114184611dce565b925050505b919050565b6000600560008473ffffffffffffffffffffffffffffffffffffffff1673ffffffffffffffffffffffffffffffffffffffff16815260200190815260200160002060008373ffffffffffffffffffffffffffffffffffffffff1673ffffffffffffffffffffffffffffffffffffffff16815260200190815260200160002060009054906101000a900460ff16905092915050565b6111e7611802565b600073ffffffffffffffffffffffffffffffffffffffff168173ffffffffffffffffffffffffffffffffffffffff16036112595760006040517f1e4fbdf700000000000000000000000000000000000000000000000000000000815260040161125091906126bd565b60405180910390fd5b611262816119d1565b50565b600a60205280600052604060002060009150905080600001805461128890612c29565b80601f01602080910402602001604051908101604052809291908181526020018280546112b490612c29565b80156113015780601f106112d657610100808354040283529160200191611301565b820191906000526020600020905b8154815290600101906020018083116112e457829003601f168201915b50505050509080600101805461131690612c29565b80601f016020809104026020016040519081016040528092919081815260200182805461134290612c29565b801561138f5780601f106113645761010080835404028352916020019161138f565b820191906000526020600020905b81548152906001019060200180831161137257829003601f168201915b5050505050908060020180546113a490612c29565b80601f01602080910402602001604051908101604052809291908181526020018280546113d090612c29565b801561141d5780601f106113f25761010080835404028352916020019161141d565b820191906000526020600020905b81548152906001019060200180831161140057829003601f168201915b5050505050905083565b60007f80ac58cd000000000000000000000000000000000000000000000000000000007bffffffffffffffffffffffffffffffffffffffffffffffffffffffff1916827bffffffffffffffffffffffffffffffffffffffffffffffffffffffff191614806114f257507f5b5e139f000000000000000000000000000000000000000000000000000000007bffffffffffffffffffffffffffffffffffffffffffffffffffffffff1916827bffffffffffffffffffffffffffffffffffffffffffffffffffffffff1916145b80611502575061150182611e37565b5b9050919050565b60008061151583611ea1565b9050600073ffffffffffffffffffffffffffffffffffffffff168173ffffffffffffffffffffffffffffffffffffffff160361158857826040517f7e27328900000000000000000000000000000000000000000000000000000000815260040161157f91906129c3565b60405180910390fd5b80915050919050565b60006004600083815260200190815260200160002060009054906101000a900473ffffffffffffffffffffffffffffffffffffffff169050919050565b600033905090565b6115e38383836001611ede565b505050565b6000806115f484611ea1565b9050600073ffffffffffffffffffffffffffffffffffffffff168373ffffffffffffffffffffffffffffffffffffffff1614611636576116358184866120a3565b5b600073ffffffffffffffffffffffffffffffffffffffff168173ffffffffffffffffffffffffffffffffffffffff16146116c757611678600085600080611ede565b6001600360008373ffffffffffffffffffffffffffffffffffffffff1673ffffffffffffffffffffffffffffffffffffffff168152602001908152602001600020600082825403925050819055505b600073ffffffffffffffffffffffffffffffffffffffff168573ffffffffffffffffffffffffffffffffffffffff161461174a576001600360008773ffffffffffffffffffffffffffffffffffffffff1673ffffffffffffffffffffffffffffffffffffffff168152602001908152602001600020600082825401925050819055505b846002600086815260200190815260200160002060006101000a81548173ffffffffffffffffffffffffffffffffffffffff021916908373ffffffffffffffffffffffffffffffffffffffff160217905550838573ffffffffffffffffffffffffffffffffffffffff168273ffffffffffffffffffffffffffffffffffffffff167fddf252ad1be2c89b69c2b068fc378daa952ba7f163c4a11628f55a4df523b3ef60405160405180910390a4809150509392505050565b61180a6115ce565b73ffffffffffffffffffffffffffffffffffffffff16611828610b68565b73ffffffffffffffffffffffffffffffffffffffff16146118875761184b6115ce565b6040517f118cdaa700000000000000000000000000000000000000000000000000000000815260040161187e91906126bd565b60405180910390fd5b565b6118a3828260405180602001604052806000815250612167565b5050565b6060600060016118b68461218b565b01905060008167ffffffffffffffff8111156118d5576118d46127a1565b5b6040519080825280601f01601f1916602001820160405280156119075781602001600182028036833780820191505090505b509050600082602083010190505b60011561196a578080600190039150507f3031323334353637383961626364656600000000000000000000000000000000600a86061a8153600a858161195e5761195d6131b3565b5b04945060008503611915575b819350505050919050565b806006600084815260200190815260200160002090816119959190612e3d565b507ff8e1a15aba9398e019f0b49df1a4fde98ee17ae345cb5f6b5e2c27f5033e8ce7826040516119c591906129c3565b60405180910390a15050565b6000600760009054906101000a900473ffffffffffffffffffffffffffffffffffffffff16905081600760006101000a81548173ffffffffffffffffffffffffffffffffffffffff021916908373ffffffffffffffffffffffffffffffffffffffff1602179055508173ffffffffffffffffffffffffffffffffffffffff168173ffffffffffffffffffffffffffffffffffffffff167f8be0079c531659141344cd1fd0a4f28419497f9722a3daafe3b4186f6b6457e060405160405180910390a35050565b600073ffffffffffffffffffffffffffffffffffffffff168273ffffffffffffffffffffffffffffffffffffffff1603611b0857816040517f5b08ba18000000000000000000000000000000000000000000000000000000008152600401611aff91906126bd565b60405180910390fd5b80600560008573ffffffffffffffffffffffffffffffffffffffff1673ffffffffffffffffffffffffffffffffffffffff16815260200190815260200160002060008473ffffffffffffffffffffffffffffffffffffffff1673ffffffffffffffffffffffffffffffffffffffff16815260200190815260200160002060006101000a81548160ff0219169083151502179055508173ffffffffffffffffffffffffffffffffffffffff168373ffffffffffffffffffffffffffffffffffffffff167f17307eab39ab6107e8899845ad3d59bd9653f200f220920489ca2b5937696c3183604051611bf9919061254c565b60405180910390a3505050565b60008373ffffffffffffffffffffffffffffffffffffffff163b1115611db0578273ffffffffffffffffffffffffffffffffffffffff1663150b7a02868685856040518563ffffffff1660e01b8152600401611c659493929190613237565b6020604051808303816000875af1925050508015611ca157506040513d601f19601f82011682018060405250810190611c9e9190613298565b60015b611d25573d8060008114611cd1576040519150601f19603f3d011682016040523d82523d6000602084013e611cd6565b606091505b506000815103611d1d57836040517f64a0ae92000000000000000000000000000000000000000000000000000000008152600401611d1491906126bd565b60405180910390fd5b805160208201fd5b63150b7a0260e01b7bffffffffffffffffffffffffffffffffffffffffffffffffffffffff1916817bffffffffffffffffffffffffffffffffffffffffffffffffffffffff191614611dae57836040517f64a0ae92000000000000000000000000000000000000000000000000000000008152600401611da591906126bd565b60405180910390fd5b505b5050505050565b606060405180602001604052806000815250905090565b6060611dd982611509565b506000611de4611db7565b90506000815111611e045760405180602001604052806000815250611e2f565b80611e0e846118a7565b604051602001611e1f92919061318f565b6040516020818303038152906040525b915050919050565b60007f01ffc9a7000000000000000000000000000000000000000000000000000000007bffffffffffffffffffffffffffffffffffffffffffffffffffffffff1916827bffffffffffffffffffffffffffffffffffffffffffffffffffffffff1916149050919050565b60006002600083815260200190815260200160002060009054906101000a900473ffffffffffffffffffffffffffffffffffffffff169050919050565b8080611f175750600073ffffffffffffffffffffffffffffffffffffffff168273ffffffffffffffffffffffffffffffffffffffff1614155b1561204b576000611f2784611509565b9050600073ffffffffffffffffffffffffffffffffffffffff168373ffffffffffffffffffffffffffffffffffffffff1614158015611f9257508273ffffffffffffffffffffffffffffffffffffffff168173ffffffffffffffffffffffffffffffffffffffff1614155b8015611fa55750611fa3818461114b565b155b15611fe757826040517fa9fbf51f000000000000000000000000000000000000000000000000000000008152600401611fde91906126bd565b60405180910390fd5b811561204957838573ffffffffffffffffffffffffffffffffffffffff168273ffffffffffffffffffffffffffffffffffffffff167f8c5be1e5ebec7d5bd14f71427d1e84f3dd0314c0f7b2291e5b200ac8c7c3b92560405160405180910390a45b505b836004600085815260200190815260200160002060006101000a81548173ffffffffffffffffffffffffffffffffffffffff021916908373ffffffffffffffffffffffffffffffffffffffff16021790555050505050565b6120ae8383836122de565b61216257600073ffffffffffffffffffffffffffffffffffffffff168373ffffffffffffffffffffffffffffffffffffffff160361212357806040517f7e27328900000000000000000000000000000000000000000000000000000000815260040161211a91906129c3565b60405180910390fd5b81816040517f177e802f0000000000000000000000000000000000000000000000000000000081526004016121599291906132c5565b60405180910390fd5b505050565b612171838361239f565b61218661217c6115ce565b6000858585611c06565b505050565b600080600090507a184f03e93ff9f4daa797ed6e38ed64bf6a1f01000000000000000083106121e9577a184f03e93ff9f4daa797ed6e38ed64bf6a1f01000000000000000083816121df576121de6131b3565b5b0492506040810190505b6d04ee2d6d415b85acef81000000008310612226576d04ee2d6d415b85acef8100000000838161221c5761221b6131b3565b5b0492506020810190505b662386f26fc10000831061225557662386f26fc10000838161224b5761224a6131b3565b5b0492506010810190505b6305f5e100831061227e576305f5e1008381612274576122736131b3565b5b0492506008810190505b61271083106122a3576127108381612299576122986131b3565b5b0492506004810190505b606483106122c657606483816122bc576122bb6131b3565b5b0492506002810190505b600a83106122d5576001810190505b80915050919050565b60008073ffffffffffffffffffffffffffffffffffffffff168373ffffffffffffffffffffffffffffffffffffffff161415801561239657508273ffffffffffffffffffffffffffffffffffffffff168473ffffffffffffffffffffffffffffffffffffffff1614806123575750612356848461114b565b5b8061239557508273ffffffffffffffffffffffffffffffffffffffff1661237d83611591565b73ffffffffffffffffffffffffffffffffffffffff16145b5b90509392505050565b600073ffffffffffffffffffffffffffffffffffffffff168273ffffffffffffffffffffffffffffffffffffffff16036124115760006040517f64a0ae9200000000000000000000000000000000000000000000000000000000815260040161240891906126bd565b60405180910390fd5b600061241f838360006115e8565b9050600073ffffffffffffffffffffffffffffffffffffffff168173ffffffffffffffffffffffffffffffffffffffff16146124935760006040517f73c6ac6e00000000000000000000000000000000000000000000000000000000815260040161248a91906126bd565b60405180910390fd5b505050565b6000604051905090565b600080fd5b600080fd5b60007fffffffff0000000000000000000000000000000000000000000000000000000082169050919050565b6124e1816124ac565b81146124ec57600080fd5b50565b6000813590506124fe816124d8565b92915050565b60006020828403121561251a576125196124a2565b5b6000612528848285016124ef565b91505092915050565b60008115159050919050565b61254681612531565b82525050565b6000602082019050612561600083018461253d565b92915050565b600081519050919050565b600082825260208201905092915050565b60005b838110156125a1578082015181840152602081019050612586565b60008484015250505050565b6000601f19601f8301169050919050565b60006125c982612567565b6125d38185612572565b93506125e3818560208601612583565b6125ec816125ad565b840191505092915050565b6000602082019050818103600083015261261181846125be565b905092915050565b6000819050919050565b61262c81612619565b811461263757600080fd5b50565b60008135905061264981612623565b92915050565b600060208284031215612665576126646124a2565b5b60006126738482850161263a565b91505092915050565b600073ffffffffffffffffffffffffffffffffffffffff82169050919050565b60006126a78261267c565b9050919050565b6126b78161269c565b82525050565b60006020820190506126d260008301846126ae565b92915050565b6126e18161269c565b81146126ec57600080fd5b50565b6000813590506126fe816126d8565b92915050565b6000806040838503121561271b5761271a6124a2565b5b6000612729858286016126ef565b925050602061273a8582860161263a565b9150509250929050565b60008060006060848603121561275d5761275c6124a2565b5b600061276b868287016126ef565b935050602061277c868287016126ef565b925050604061278d8682870161263a565b9150509250925092565b600080fd5b600080fd5b7f4e487b7100000000000000000000000000000000000000000000000000000000600052604160045260246000fd5b6127d9826125ad565b810181811067ffffffffffffffff821117156127f8576127f76127a1565b5b80604052505050565b600061280b612498565b905061281782826127d0565b919050565b600067ffffffffffffffff821115612837576128366127a1565b5b612840826125ad565b9050602081019050919050565b82818337600083830152505050565b600061286f61286a8461281c565b612801565b90508281526020810184848401111561288b5761288a61279c565b5b61289684828561284d565b509392505050565b600082601f8301126128b3576128b2612797565b5b81356128c384826020860161285c565b91505092915050565b600080600080608085870312156128e6576128e56124a2565b5b60006128f48782880161263a565b945050602085013567ffffffffffffffff811115612915576129146124a7565b5b6129218782880161289e565b935050604085013567ffffffffffffffff811115612942576129416124a7565b5b61294e8782880161289e565b925050606085013567ffffffffffffffff81111561296f5761296e6124a7565b5b61297b8782880161289e565b91505092959194509250565b60006020828403121561299d5761299c6124a2565b5b60006129ab848285016126ef565b91505092915050565b6129bd81612619565b82525050565b60006020820190506129d860008301846129b4565b92915050565b6129e781612531565b81146129f257600080fd5b50565b600081359050612a04816129de565b92915050565b60008060408385031215612a2157612a206124a2565b5b6000612a2f858286016126ef565b9250506020612a40858286016129f5565b9150509250929050565b600067ffffffffffffffff821115612a6557612a646127a1565b5b612a6e826125ad565b9050602081019050919050565b6000612a8e612a8984612a4a565b612801565b905082815260208101848484011115612aaa57612aa961279c565b5b612ab584828561284d565b509392505050565b600082601f830112612ad257612ad1612797565b5b8135612ae2848260208601612a7b565b91505092915050565b60008060008060808587031215612b0557612b046124a2565b5b6000612b13878288016126ef565b9450506020612b24878288016126ef565b9350506040612b358782880161263a565b925050606085013567ffffffffffffffff811115612b5657612b556124a7565b5b612b6287828801612abd565b91505092959194509250565b60008060408385031215612b8557612b846124a2565b5b6000612b93858286016126ef565b9250506020612ba4858286016126ef565b9150509250929050565b60006060820190508181036000830152612bc881866125be565b90508181036020830152612bdc81856125be565b90508181036040830152612bf081846125be565b9050949350505050565b7f4e487b7100000000000000000000000000000000000000000000000000000000600052602260045260246000fd5b60006002820490506001821680612c4157607f821691505b602082108103612c5457612c53612bfa565b5b50919050565b6000606082019050612c6f60008301866126ae565b612c7c60208301856129b4565b612c8960408301846126ae565b949350505050565b60008190508160005260206000209050919050565b60006020601f8301049050919050565b600082821b905092915050565b600060088302612cf37fffffffffffffffffffffffffffffffffffffffffffffffffffffffffffffffff82612cb6565b612cfd8683612cb6565b95508019841693508086168417925050509392505050565b6000819050919050565b6000612d3a612d35612d3084612619565b612d15565b612619565b9050919050565b6000819050919050565b612d5483612d1f565b612d68612d6082612d41565b848454612cc3565b825550505050565b600090565b612d7d612d70565b612d88818484612d4b565b505050565b5b81811015612dac57612da1600082612d75565b600181019050612d8e565b5050565b601f821115612df157612dc281612c91565b612dcb84612ca6565b81016020851015612dda578190505b612dee612de685612ca6565b830182612d8d565b50505b505050565b600082821c905092915050565b6000612e1460001984600802612df6565b1980831691505092915050565b6000612e2d8383612e03565b9150826002028217905092915050565b612e4682612567565b67ffffffffffffffff811115612e5f57612e5e6127a1565b5b612e698254612c29565b612e74828285612db0565b600060209050601f831160018114612ea75760008415612e95578287015190505b612e9f8582612e21565b865550612f07565b601f198416612eb586612c91565b60005b82811015612edd57848901518255600182019150602085019450602081019050612eb8565b86831015612efa5784890151612ef6601f891682612e03565b8355505b6001600288020188555050505b505050505050565b7f4261646765206d65746164617461206e6f742073657400000000000000000000600082015250565b6000612f45601683612572565b9150612f5082612f0f565b602082019050919050565b60006020820190508181036000830152612f7481612f38565b9050919050565b7f4e487b7100000000000000000000000000000000000000000000000000000000600052601160045260246000fd5b6000612fb582612619565b91507fffffffffffffffffffffffffffffffffffffffffffffffffffffffffffffffff8203612fe757612fe6612f7b565b5b600182019050919050565b600081905092915050565b7f2f6261646765732f000000000000000000000000000000000000000000000000600082015250565b6000613033600883612ff2565b915061303e82612ffd565b600882019050919050565b600061305482612567565b61305e8185612ff2565b935061306e818560208601612583565b80840191505092915050565b7f2e6a736f6e000000000000000000000000000000000000000000000000000000600082015250565b60006130b0600583612ff2565b91506130bb8261307a565b600582019050919050565b60006130d182613026565b91506130dd8284613049565b91506130e8826130a3565b915081905092915050565b600060408201905061310860008301856129b4565b818103602083015261311a81846125be565b90509392505050565b7f416c7265616479206d696e746564207468697320626164676500000000000000600082015250565b6000613159601983612572565b915061316482613123565b602082019050919050565b600060208201905081810360008301526131888161314c565b9050919050565b600061319b8285613049565b91506131a78284613049565b91508190509392505050565b7f4e487b7100000000000000000000000000000000000000000000000000000000600052601260045260246000fd5b600081519050919050565b600082825260208201905092915050565b6000613209826131e2565b61321381856131ed565b9350613223818560208601612583565b61322c816125ad565b840191505092915050565b600060808201905061324c60008301876126ae565b61325960208301866126ae565b61326660408301856129b4565b818103606083015261327881846131fe565b905095945050505050565b600081519050613292816124d8565b92915050565b6000602082840312156132ae576132ad6124a2565b5b60006132bc84828501613283565b91505092915050565b60006040820190506132da60008301856126ae565b6132e760208301846129b4565b939250505056fea26469706673582212207000cf3b7aa7697bfb1390321ccdfb27186b6279b01b99c973e1799a65f5185464736f6c634300081c0033",
  "linkReferences": {},
  "deployedLinkReferences": {}
}